{
  "_format": "hh-sol-artifact-1",
  "contractName": "ResQCircle",
  "sourceName": "contracts/ResQCircle.sol",
  "abi": [
    {
      "inputs": [
        {
          "internalType": "address",
          "name": "_admin",
          "type": "address"
        },
        {
          "internalType": "address",
          "name": "_token",
          "type": "address"
        },
        {
          "internalType": "uint256",
          "name": "_minContribution",
          "type": "uint256"
        },
        {
          "internalType": "uint48",
          "name": "_voteDuration",
          "type": "uint48"
        },
        {
          "internalType": "uint16",
          "name": "_quorumBps",
          "type": "uint16"
        },
        {
          "internalType": "uint16",
          "name": "_approveBps",
          "type": "uint16"
        },
        {
          "internalType": "uint16",
          "name": "_maxPayoutPerClaimBps",
          "type": "uint16"
        }
      ],
      "stateMutability": "nonpayable",
      "type": "constructor"
    },
    {
      "inputs": [],
      "name": "ReentrancyGuardReentrantCall",
      "type": "error"
    },
    {
      "anonymous": false,
      "inputs": [
        {
          "indexed": true,
          "internalType": "uint256",
          "name": "claimId",
          "type": "uint256"
        },
        {
          "indexed": false,
          "internalType": "bool",
          "name": "paid",
          "type": "bool"
        },
        {
          "indexed": false,
          "internalType": "uint256",
          "name": "amountPaid",
          "type": "uint256"
        }
      ],
      "name": "ClaimFinalized",
      "type": "event"
    },
    {
      "anonymous": false,
      "inputs": [
        {
          "indexed": true,
          "internalType": "uint256",
          "name": "claimId",
          "type": "uint256"
        },
        {
          "indexed": true,
          "internalType": "address",
          "name": "claimant",
          "type": "address"
        },
        {
          "indexed": false,
          "internalType": "uint256",
          "name": "amountRequested",
          "type": "uint256"
        },
        {
          "indexed": false,
          "internalType": "string",
          "name": "evidence",
          "type": "string"
        }
      ],
      "name": "ClaimOpened",
      "type": "event"
    },
    {
      "anonymous": false,
      "inputs": [
        {
          "indexed": true,
          "internalType": "address",
          "name": "member",
          "type": "address"
        },
        {
          "indexed": false,
          "internalType": "uint256",
          "name": "amount",
          "type": "uint256"
        }
      ],
      "name": "Contributed",
      "type": "event"
    },
    {
      "anonymous": false,
      "inputs": [
        {
          "indexed": true,
          "internalType": "address",
          "name": "member",
          "type": "address"
        },
        {
          "indexed": false,
          "internalType": "uint256",
          "name": "amount",
          "type": "uint256"
        }
      ],
      "name": "Joined",
      "type": "event"
    },
    {
      "anonymous": false,
      "inputs": [
        {
          "indexed": true,
          "internalType": "uint256",
          "name": "claimId",
          "type": "uint256"
        },
        {
          "indexed": true,
          "internalType": "address",
          "name": "voter",
          "type": "address"
        },
        {
          "indexed": false,
          "internalType": "bool",
          "name": "support",
          "type": "bool"
        }
      ],
      "name": "Voted",
      "type": "event"
    },
    {
      "inputs": [],
      "name": "admin",
      "outputs": [
        {
          "internalType": "address",
          "name": "",
          "type": "address"
        }
      ],
      "stateMutability": "view",
      "type": "function"
    },
    {
      "inputs": [],
      "name": "approveBps",
      "outputs": [
        {
          "internalType": "uint16",
          "name": "",
          "type": "uint16"
        }
      ],
      "stateMutability": "view",
      "type": "function"
    },
    {
      "inputs": [],
      "name": "balance",
      "outputs": [
        {
          "internalType": "uint256",
          "name": "",
          "type": "uint256"
        }
      ],
      "stateMutability": "view",
      "type": "function"
    },
    {
      "inputs": [],
      "name": "claimsCount",
      "outputs": [
        {
          "internalType": "uint256",
          "name": "",
          "type": "uint256"
        }
      ],
      "stateMutability": "view",
      "type": "function"
    },
    {
      "inputs": [
        {
          "internalType": "uint256",
          "name": "amount",
          "type": "uint256"
        }
      ],
      "name": "contribute",
      "outputs": [],
      "stateMutability": "nonpayable",
      "type": "function"
    },
    {
      "inputs": [
        {
          "internalType": "uint256",
          "name": "claimId",
          "type": "uint256"
        }
      ],
      "name": "finalizeClaim",
      "outputs": [],
      "stateMutability": "nonpayable",
      "type": "function"
    },
    {
      "inputs": [
        {
          "internalType": "uint256",
          "name": "claimId",
          "type": "uint256"
        }
      ],
      "name": "getClaim",
      "outputs": [
        {
          "internalType": "address",
          "name": "claimant",
          "type": "address"
        },
        {
          "internalType": "string",
          "name": "evidence",
          "type": "string"
        },
        {
          "internalType": "uint256",
          "name": "amountRequested",
          "type": "uint256"
        },
        {
          "internalType": "uint48",
          "name": "startTime",
          "type": "uint48"
        },
        {
          "internalType": "uint48",
          "name": "endTime",
          "type": "uint48"
        },
        {
          "internalType": "uint32",
          "name": "yesVotes",
          "type": "uint32"
        },
        {
          "internalType": "uint32",
          "name": "noVotes",
          "type": "uint32"
        },
        {
          "internalType": "bool",
          "name": "finalized",
          "type": "bool"
        },
        {
          "internalType": "bool",
          "name": "paid",
          "type": "bool"
        }
      ],
      "stateMutability": "view",
      "type": "function"
    },
    {
      "inputs": [
        {
          "internalType": "address",
          "name": "",
          "type": "address"
        }
      ],
      "name": "isMember",
      "outputs": [
        {
          "internalType": "bool",
          "name": "",
          "type": "bool"
        }
      ],
      "stateMutability": "view",
      "type": "function"
    },
    {
      "inputs": [
        {
          "internalType": "uint256",
          "name": "amount",
          "type": "uint256"
        }
      ],
      "name": "joinAndContribute",
      "outputs": [],
      "stateMutability": "nonpayable",
      "type": "function"
    },
    {
      "inputs": [],
      "name": "maxPayoutPerClaimBps",
      "outputs": [
        {
          "internalType": "uint16",
          "name": "",
          "type": "uint16"
        }
      ],
      "stateMutability": "view",
      "type": "function"
    },
    {
      "inputs": [],
      "name": "minContribution",
      "outputs": [
        {
          "internalType": "uint256",
          "name": "",
          "type": "uint256"
        }
      ],
      "stateMutability": "view",
      "type": "function"
    },
    {
      "inputs": [
        {
          "internalType": "string",
          "name": "evidenceCID",
          "type": "string"
        },
        {
          "internalType": "uint256",
          "name": "amountRequested",
          "type": "uint256"
        }
      ],
      "name": "openClaim",
      "outputs": [
        {
          "internalType": "uint256",
          "name": "claimId",
          "type": "uint256"
        }
      ],
      "stateMutability": "nonpayable",
      "type": "function"
    },
    {
      "inputs": [],
      "name": "quorumBps",
      "outputs": [
        {
          "internalType": "uint16",
          "name": "",
          "type": "uint16"
        }
      ],
      "stateMutability": "view",
      "type": "function"
    },
    {
      "inputs": [],
      "name": "token",
      "outputs": [
        {
          "internalType": "contract IERC20",
          "name": "",
          "type": "address"
        }
      ],
      "stateMutability": "view",
      "type": "function"
    },
    {
      "inputs": [],
      "name": "totalContributed",
      "outputs": [
        {
          "internalType": "uint256",
          "name": "",
          "type": "uint256"
        }
      ],
      "stateMutability": "view",
      "type": "function"
    },
    {
      "inputs": [],
      "name": "totalMembers",
      "outputs": [
        {
          "internalType": "uint256",
          "name": "",
          "type": "uint256"
        }
      ],
      "stateMutability": "view",
      "type": "function"
    },
    {
      "inputs": [
        {
          "internalType": "uint256",
          "name": "claimId",
          "type": "uint256"
        },
        {
          "internalType": "bool",
          "name": "support",
          "type": "bool"
        }
      ],
      "name": "vote",
      "outputs": [],
      "stateMutability": "nonpayable",
      "type": "function"
    },
    {
      "inputs": [],
      "name": "voteDuration",
      "outputs": [
        {
          "internalType": "uint48",
          "name": "",
          "type": "uint48"
        }
      ],
      "stateMutability": "view",
      "type": "function"
    }
  ],
  "bytecode": "0x6101606040523480156200001257600080fd5b50604051620029163803806200291683398181016040528101906200003891906200034e565b6001600081905550600073ffffffffffffffffffffffffffffffffffffffff168773ffffffffffffffffffffffffffffffffffffffff1614158015620000ab5750600073ffffffffffffffffffffffffffffffffffffffff168673ffffffffffffffffffffffffffffffffffffffff1614155b620000ed576040517f08c379a0000000000000000000000000000000000000000000000000000000008152600401620000e49062000462565b60405180910390fd5b6127108261ffff16111580156200010a57506127108361ffff1611155b80156200011d57506127108161ffff1611155b6200015f576040517f08c379a00000000000000000000000000000000000000000000000000000000081526004016200015690620004d4565b60405180910390fd5b8673ffffffffffffffffffffffffffffffffffffffff1660808173ffffffffffffffffffffffffffffffffffffffff16815250508573ffffffffffffffffffffffffffffffffffffffff1660a08173ffffffffffffffffffffffffffffffffffffffff16815250508460c081815250508365ffffffffffff1660e08165ffffffffffff16815250508261ffff166101008161ffff16815250508161ffff166101208161ffff16815250508061ffff166101408161ffff168152505050505050505050620004f6565b600080fd5b600073ffffffffffffffffffffffffffffffffffffffff82169050919050565b600062000259826200022c565b9050919050565b6200026b816200024c565b81146200027757600080fd5b50565b6000815190506200028b8162000260565b92915050565b6000819050919050565b620002a68162000291565b8114620002b257600080fd5b50565b600081519050620002c6816200029b565b92915050565b600065ffffffffffff82169050919050565b620002e981620002cc565b8114620002f557600080fd5b50565b6000815190506200030981620002de565b92915050565b600061ffff82169050919050565b62000328816200030f565b81146200033457600080fd5b50565b60008151905062000348816200031d565b92915050565b600080600080600080600060e0888a03121562000370576200036f62000227565b5b6000620003808a828b016200027a565b9750506020620003938a828b016200027a565b9650506040620003a68a828b01620002b5565b9550506060620003b98a828b01620002f8565b9450506080620003cc8a828b0162000337565b93505060a0620003df8a828b0162000337565b92505060c0620003f28a828b0162000337565b91505092959891949750929550565b600082825260208201905092915050565b7f7a65726f20616464720000000000000000000000000000000000000000000000600082015250565b60006200044a60098362000401565b9150620004578262000412565b602082019050919050565b600060208201905081810360008301526200047d816200043b565b9050919050565b7f6270733e31303025000000000000000000000000000000000000000000000000600082015250565b6000620004bc60088362000401565b9150620004c98262000484565b602082019050919050565b60006020820190508181036000830152620004ef81620004ad565b9050919050565b60805160a05160c05160e05161010051610120516101405161238d62000589600039600081816103750152610793015260008181610547015261071a0152600081816106b901526112450152600081816103990152610b44015260008181610c190152610cf30152600081816107fa01528181610c3f0152818161128d015261131a01526000611269015261238d6000f3fe608060405234801561001057600080fd5b50600436106101165760003560e01c8063aaffadf3116100a2578063c1cbbca711610071578063c1cbbca7146102db578063c9d27afe146102f7578063cd2ddd0c14610313578063f851a44014610331578063fc0c546a1461034f57610116565b8063aaffadf314610265578063b69ef8a814610283578063bbd245ea146102a1578063c061dca4146102bf57610116565b80636004e958116100e95780636004e958146101ad57806376e92559146101cb5780637a971114146101e957806396ed91fa14610205578063a230c5241461023557610116565b8063023f41471461011b5780630ea99fef1461013957806356364499146101575780635aef244714610175575b600080fd5b61012361036d565b6040516101309190611461565b60405180910390f35b610141610373565b60405161014e9190611499565b60405180910390f35b61015f610397565b60405161016c91906114d5565b60405180910390f35b61018f600480360381019061018a9190611526565b6103bb565b6040516101a49998979695949392919061165e565b60405180910390f35b6101b5610545565b6040516101c29190611499565b60405180910390f35b6101d3610569565b6040516101e09190611461565b60405180910390f35b61020360048036038101906101fe9190611526565b61056f565b005b61021f600480360381019061021a9190611757565b610978565b60405161022c9190611461565b60405180910390f35b61024f600480360381019061024a91906117e3565b610bf7565b60405161025c9190611810565b60405180910390f35b61026d610c17565b60405161027a9190611461565b60405180910390f35b61028b610c3b565b6040516102989190611461565b60405180910390f35b6102a9610cdc565b6040516102b69190611461565b60405180910390f35b6102d960048036038101906102d49190611526565b610ce9565b005b6102f560048036038101906102f09190611526565b610e79565b005b610311600480360381019061030c9190611857565b610f64565b005b61031b611243565b6040516103289190611499565b60405180910390f35b610339611267565b6040516103469190611897565b60405180910390f35b61035761128b565b6040516103649190611911565b60405180910390f35b60025481565b7f000000000000000000000000000000000000000000000000000000000000000081565b7f000000000000000000000000000000000000000000000000000000000000000081565b6000606060008060008060008060008060048b815481106103df576103de61192c565b5b906000526020600020906005020190508060000160009054906101000a900473ffffffffffffffffffffffffffffffffffffffff168160010182600201548360030160009054906101000a900465ffffffffffff168460030160069054906101000a900465ffffffffffff1685600301600c9054906101000a900463ffffffff168660030160109054906101000a900463ffffffff168760030160149054906101000a900460ff168860030160159054906101000a900460ff168780546104a59061198a565b80601f01602080910402602001604051908101604052809291908181526020018280546104d19061198a565b801561051e5780601f106104f35761010080835404028352916020019161051e565b820191906000526020600020905b81548152906001019060200180831161050157829003601f168201915b50505050509750995099509950995099509950995099509950509193959799909294969850565b7f000000000000000000000000000000000000000000000000000000000000000081565b60015481565b6105776112af565b60006004828154811061058d5761058c61192c565b5b906000526020600020906005020190508060030160069054906101000a900465ffffffffffff1665ffffffffffff164210156105fe576040517f08c379a00000000000000000000000000000000000000000000000000000000081526004016105f590611a07565b60405180910390fd5b8060030160149054906101000a900460ff1615610650576040517f08c379a000000000000000000000000000000000000000000000000000000000815260040161064790611a73565b60405180910390fd5b60018160030160146101000a81548160ff02191690831515021790555060008160030160109054906101000a900463ffffffff1682600301600c9054906101000a900463ffffffff166106a39190611ac2565b9050600080600154116106b7576000610700565b7f000000000000000000000000000000000000000000000000000000000000000061ffff166001546106e99190611afa565b6127108363ffffffff166106fd9190611afa565b10155b90506000808363ffffffff1611610718576000610779565b7f000000000000000000000000000000000000000000000000000000000000000061ffff168363ffffffff1661074e9190611afa565b61271085600301600c9054906101000a900463ffffffff1663ffffffff166107769190611afa565b10155b905060008280156107875750815b1561091d5760006127107f000000000000000000000000000000000000000000000000000000000000000061ffff166107be610c3b565b6107c89190611afa565b6107d29190611b6b565b90506000818760020154116107eb5786600201546107ed565b815b9050600081111561091a577f000000000000000000000000000000000000000000000000000000000000000073ffffffffffffffffffffffffffffffffffffffff1663a9059cbb8860000160009054906101000a900473ffffffffffffffffffffffffffffffffffffffff16836040518363ffffffff1660e01b8152600401610877929190611b9c565b6020604051808303816000875af1158015610896573d6000803e3d6000fd5b505050506040513d601f19601f820116820180604052508101906108ba9190611bda565b6108f9576040517f08c379a00000000000000000000000000000000000000000000000000000000081526004016108f090611c53565b60405180910390fd5b60018760030160156101000a81548160ff0219169083151502179055508092505b50505b857f2f2868d7bbc0ff7629c151626e867a97f0b97f2f6b6db5600395a037c51a48b38660030160159054906101000a900460ff1683604051610960929190611c73565b60405180910390a250505050506109756112f5565b50565b6000600360003373ffffffffffffffffffffffffffffffffffffffff1673ffffffffffffffffffffffffffffffffffffffff16815260200190815260200160002060009054906101000a900460ff16610a06576040517f08c379a00000000000000000000000000000000000000000000000000000000081526004016109fd90611ce8565b60405180910390fd5b60008484905011610a4c576040517f08c379a0000000000000000000000000000000000000000000000000000000008152600401610a4390611d54565b60405180910390fd5b60008211610a8f576040517f08c379a0000000000000000000000000000000000000000000000000000000008152600401610a8690611dc0565b60405180910390fd5b6004805490509050600060046001816001815401808255809150500390600052602060002090600502019050338160000160006101000a81548173ffffffffffffffffffffffffffffffffffffffff021916908373ffffffffffffffffffffffffffffffffffffffff1602179055508484826001019182610b11929190611fbc565b50828160020181905550428160030160006101000a81548165ffffffffffff021916908365ffffffffffff1602179055507f000000000000000000000000000000000000000000000000000000000000000065ffffffffffff1642610b76919061208c565b8160030160066101000a81548165ffffffffffff021916908365ffffffffffff1602179055503373ffffffffffffffffffffffffffffffffffffffff16827f8de24e8fd4074990f3a83c965157cc2a5ff9398411fa6c837f7db66b6dee09ff858888604051610be7939291906120fc565b60405180910390a3509392505050565b60036020528060005260406000206000915054906101000a900460ff1681565b7f000000000000000000000000000000000000000000000000000000000000000081565b60007f000000000000000000000000000000000000000000000000000000000000000073ffffffffffffffffffffffffffffffffffffffff166370a08231306040518263ffffffff1660e01b8152600401610c969190611897565b602060405180830381865afa158015610cb3573d6000803e3d6000fd5b505050506040513d601f19601f82011682018060405250810190610cd79190612143565b905090565b6000600480549050905090565b610cf16112af565b7f0000000000000000000000000000000000000000000000000000000000000000811015610d54576040517f08c379a0000000000000000000000000000000000000000000000000000000008152600401610d4b906121bc565b60405180910390fd5b600360003373ffffffffffffffffffffffffffffffffffffffff1673ffffffffffffffffffffffffffffffffffffffff16815260200190815260200160002060009054906101000a900460ff16610e65576001600360003373ffffffffffffffffffffffffffffffffffffffff1673ffffffffffffffffffffffffffffffffffffffff16815260200190815260200160002060006101000a81548160ff0219169083151502179055506001806000828254610e0f919061208c565b925050819055503373ffffffffffffffffffffffffffffffffffffffff167f49f8fa5eee2e3f21251c2e968640dcaef35cb9332429eb059bb3cd56ddc2533d82604051610e5c9190611461565b60405180910390a25b610e6e816112ff565b610e766112f5565b50565b600360003373ffffffffffffffffffffffffffffffffffffffff1673ffffffffffffffffffffffffffffffffffffffff16815260200190815260200160002060009054906101000a900460ff16610f05576040517f08c379a0000000000000000000000000000000000000000000000000000000008152600401610efc90611ce8565b60405180910390fd5b610f0d6112af565b60008111610f50576040517f08c379a0000000000000000000000000000000000000000000000000000000008152600401610f4790611dc0565b60405180910390fd5b610f59816112ff565b610f616112f5565b50565b600360003373ffffffffffffffffffffffffffffffffffffffff1673ffffffffffffffffffffffffffffffffffffffff16815260200190815260200160002060009054906101000a900460ff16610ff0576040517f08c379a0000000000000000000000000000000000000000000000000000000008152600401610fe790611ce8565b60405180910390fd5b6000600483815481106110065761100561192c565b5b906000526020600020906005020190508060030160069054906101000a900465ffffffffffff1665ffffffffffff164210611076576040517f08c379a000000000000000000000000000000000000000000000000000000000815260040161106d90612228565b60405180910390fd5b8060040160003373ffffffffffffffffffffffffffffffffffffffff1673ffffffffffffffffffffffffffffffffffffffff16815260200190815260200160002060009054906101000a900460ff1615611105576040517f08c379a00000000000000000000000000000000000000000000000000000000081526004016110fc90612294565b60405180910390fd5b60018160040160003373ffffffffffffffffffffffffffffffffffffffff1673ffffffffffffffffffffffffffffffffffffffff16815260200190815260200160002060006101000a81548160ff02191690831515021790555081156111ac57600181600301600c8282829054906101000a900463ffffffff166111899190611ac2565b92506101000a81548163ffffffff021916908363ffffffff1602179055506111ef565b60018160030160108282829054906101000a900463ffffffff166111d09190611ac2565b92506101000a81548163ffffffff021916908363ffffffff1602179055505b3373ffffffffffffffffffffffffffffffffffffffff16837ff2913dbe661ee2acc4a046d8fbcdc792373bda34c41c6086484b5345e5785e5f846040516112369190611810565b60405180910390a3505050565b7f000000000000000000000000000000000000000000000000000000000000000081565b7f000000000000000000000000000000000000000000000000000000000000000081565b7f000000000000000000000000000000000000000000000000000000000000000081565b6002600054036112eb576040517f3ee5aeb500000000000000000000000000000000000000000000000000000000815260040160405180910390fd5b6002600081905550565b6001600081905550565b8060026000828254611311919061208c565b925050819055507f000000000000000000000000000000000000000000000000000000000000000073ffffffffffffffffffffffffffffffffffffffff166323b872dd3330846040518463ffffffff1660e01b8152600401611375939291906122b4565b6020604051808303816000875af1158015611394573d6000803e3d6000fd5b505050506040513d601f19601f820116820180604052508101906113b89190611bda565b6113f7576040517f08c379a00000000000000000000000000000000000000000000000000000000081526004016113ee90612337565b60405180910390fd5b3373ffffffffffffffffffffffffffffffffffffffff167f62722348256371b5147820d6cad90c40fd2da1ccee18c3ed52c0bca5a61dbbab8260405161143d9190611461565b60405180910390a250565b6000819050919050565b61145b81611448565b82525050565b60006020820190506114766000830184611452565b92915050565b600061ffff82169050919050565b6114938161147c565b82525050565b60006020820190506114ae600083018461148a565b92915050565b600065ffffffffffff82169050919050565b6114cf816114b4565b82525050565b60006020820190506114ea60008301846114c6565b92915050565b600080fd5b600080fd5b61150381611448565b811461150e57600080fd5b50565b600081359050611520816114fa565b92915050565b60006020828403121561153c5761153b6114f0565b5b600061154a84828501611511565b91505092915050565b600073ffffffffffffffffffffffffffffffffffffffff82169050919050565b600061157e82611553565b9050919050565b61158e81611573565b82525050565b600081519050919050565b600082825260208201905092915050565b60005b838110156115ce5780820151818401526020810190506115b3565b60008484015250505050565b6000601f19601f8301169050919050565b60006115f682611594565b611600818561159f565b93506116108185602086016115b0565b611619816115da565b840191505092915050565b600063ffffffff82169050919050565b61163d81611624565b82525050565b60008115159050919050565b61165881611643565b82525050565b600061012082019050611674600083018c611585565b8181036020830152611686818b6115eb565b9050611695604083018a611452565b6116a260608301896114c6565b6116af60808301886114c6565b6116bc60a0830187611634565b6116c960c0830186611634565b6116d660e083018561164f565b6116e461010083018461164f565b9a9950505050505050505050565b600080fd5b600080fd5b600080fd5b60008083601f840112611717576117166116f2565b5b8235905067ffffffffffffffff811115611734576117336116f7565b5b6020830191508360018202830111156117505761174f6116fc565b5b9250929050565b6000806000604084860312156117705761176f6114f0565b5b600084013567ffffffffffffffff81111561178e5761178d6114f5565b5b61179a86828701611701565b935093505060206117ad86828701611511565b9150509250925092565b6117c081611573565b81146117cb57600080fd5b50565b6000813590506117dd816117b7565b92915050565b6000602082840312156117f9576117f86114f0565b5b6000611807848285016117ce565b91505092915050565b6000602082019050611825600083018461164f565b92915050565b61183481611643565b811461183f57600080fd5b50565b6000813590506118518161182b565b92915050565b6000806040838503121561186e5761186d6114f0565b5b600061187c85828601611511565b925050602061188d85828601611842565b9150509250929050565b60006020820190506118ac6000830184611585565b92915050565b6000819050919050565b60006118d76118d26118cd84611553565b6118b2565b611553565b9050919050565b60006118e9826118bc565b9050919050565b60006118fb826118de565b9050919050565b61190b816118f0565b82525050565b60006020820190506119266000830184611902565b92915050565b7f4e487b7100000000000000000000000000000000000000000000000000000000600052603260045260246000fd5b7f4e487b7100000000000000000000000000000000000000000000000000000000600052602260045260246000fd5b600060028204905060018216806119a257607f821691505b6020821081036119b5576119b461195b565b5b50919050565b7f7374696c6c20766f74696e670000000000000000000000000000000000000000600082015250565b60006119f1600c8361159f565b91506119fc826119bb565b602082019050919050565b60006020820190508181036000830152611a20816119e4565b9050919050565b7f616c72656164792066696e616c697a6564000000000000000000000000000000600082015250565b6000611a5d60118361159f565b9150611a6882611a27565b602082019050919050565b60006020820190508181036000830152611a8c81611a50565b9050919050565b7f4e487b7100000000000000000000000000000000000000000000000000000000600052601160045260246000fd5b6000611acd82611624565b9150611ad883611624565b9250828201905063ffffffff811115611af457611af3611a93565b5b92915050565b6000611b0582611448565b9150611b1083611448565b9250828202611b1e81611448565b91508282048414831517611b3557611b34611a93565b5b5092915050565b7f4e487b7100000000000000000000000000000000000000000000000000000000600052601260045260246000fd5b6000611b7682611448565b9150611b8183611448565b925082611b9157611b90611b3c565b5b828204905092915050565b6000604082019050611bb16000830185611585565b611bbe6020830184611452565b9392505050565b600081519050611bd48161182b565b92915050565b600060208284031215611bf057611bef6114f0565b5b6000611bfe84828501611bc5565b91505092915050565b7f7472616e73666572206661696c00000000000000000000000000000000000000600082015250565b6000611c3d600d8361159f565b9150611c4882611c07565b602082019050919050565b60006020820190508181036000830152611c6c81611c30565b9050919050565b6000604082019050611c88600083018561164f565b611c956020830184611452565b9392505050565b7f6e6f74206d656d62657200000000000000000000000000000000000000000000600082015250565b6000611cd2600a8361159f565b9150611cdd82611c9c565b602082019050919050565b60006020820190508181036000830152611d0181611cc5565b9050919050565b7f6e6f2065766964656e6365000000000000000000000000000000000000000000600082015250565b6000611d3e600b8361159f565b9150611d4982611d08565b602082019050919050565b60006020820190508181036000830152611d6d81611d31565b9050919050565b7f616d6f756e743d30000000000000000000000000000000000000000000000000600082015250565b6000611daa60088361159f565b9150611db582611d74565b602082019050919050565b60006020820190508181036000830152611dd981611d9d565b9050919050565b600082905092915050565b7f4e487b7100000000000000000000000000000000000000000000000000000000600052604160045260246000fd5b60008190508160005260206000209050919050565b60006020601f8301049050919050565b600082821b905092915050565b600060088302611e7c7fffffffffffffffffffffffffffffffffffffffffffffffffffffffffffffffff82611e3f565b611e868683611e3f565b95508019841693508086168417925050509392505050565b6000611eb9611eb4611eaf84611448565b6118b2565b611448565b9050919050565b6000819050919050565b611ed383611e9e565b611ee7611edf82611ec0565b848454611e4c565b825550505050565b600090565b611efc611eef565b611f07818484611eca565b505050565b5b81811015611f2b57611f20600082611ef4565b600181019050611f0d565b5050565b601f821115611f7057611f4181611e1a565b611f4a84611e2f565b81016020851015611f59578190505b611f6d611f6585611e2f565b830182611f0c565b50505b505050565b600082821c905092915050565b6000611f9360001984600802611f75565b1980831691505092915050565b6000611fac8383611f82565b9150826002028217905092915050565b611fc68383611de0565b67ffffffffffffffff811115611fdf57611fde611deb565b5b611fe9825461198a565b611ff4828285611f2f565b6000601f8311600181146120235760008415612011578287013590505b61201b8582611fa0565b865550612083565b601f19841661203186611e1a565b60005b8281101561205957848901358255600182019150602085019450602081019050612034565b868310156120765784890135612072601f891682611f82565b8355505b6001600288020188555050505b50505050505050565b600061209782611448565b91506120a283611448565b92508282019050808211156120ba576120b9611a93565b5b92915050565b82818337600083830152505050565b60006120db838561159f565b93506120e88385846120c0565b6120f1836115da565b840190509392505050565b60006040820190506121116000830186611452565b81810360208301526121248184866120cf565b9050949350505050565b60008151905061213d816114fa565b92915050565b600060208284031215612159576121586114f0565b5b60006121678482850161212e565b91505092915050565b7f6d696e20636f6e747269627574696f6e00000000000000000000000000000000600082015250565b60006121a660108361159f565b91506121b182612170565b602082019050919050565b600060208201905081810360008301526121d581612199565b9050919050565b7f766f74696e6720636c6f73656400000000000000000000000000000000000000600082015250565b6000612212600d8361159f565b915061221d826121dc565b602082019050919050565b6000602082019050818103600083015261224181612205565b9050919050565b7f616c726561647920766f74656400000000000000000000000000000000000000600082015250565b600061227e600d8361159f565b915061228982612248565b602082019050919050565b600060208201905081810360008301526122ad81612271565b9050919050565b60006060820190506122c96000830186611585565b6122d66020830185611585565b6122e36040830184611452565b949350505050565b7f7472616e7366657246726f6d206661696c000000000000000000000000000000600082015250565b600061232160118361159f565b915061232c826122eb565b602082019050919050565b6000602082019050818103600083015261235081612314565b905091905056fea264697066735822122028fc4fa6b6a25a784c0865bdc2c68c22d2f7703c2713371858daed68e7ec62ae64736f6c63430008180033",
  "linkReferences": {},
  "deployedLinkReferences": {}
}